:100000000C9490000C949A000C949A000C949A0012
:100010000C949A000C949A000C949A000C949A00F8
:100020000C949A000C949A000C949A000C949A00E8
:100030000C949A000C949A000C949A000C949A00D8
:100040000C949A000C94B8000C949A000C949A00AA
:100050000C949A000C949A000C949A000C949A00B8
:100060000C949A000C949A000C949A000C949A00A8
:100070000C949A000C949A000C949A000C949A0098
:100080000C949A000C949A000C949A000C949A0088
:100090000C949A000C949A000C949A000C949A0078
:1000A0000C949A000C949A000C949A000C949A0068
:1000B0000C949A000C949A000C949A000C949A0058
:1000C0000C949A000C949A000C949A000C949A0048
:1000D0000C949A000C949A000C949A000C949A0038
:1000E0000C949A000C949A000C949A000C949A0028
:1000F0000C949A000C949A000C949A000C949A0018
:100100000C949A000C949A000C949A000C949A0007
:100110000C949A000C949A000C949A000C949A00F7
:1001200011241FBECFEFD1E4DEBFCDBF0E94CE00B1
:100130000C94ED000C940000CF93DF9300D0CDB76A
:10014000DEB7882381F01A82198229813A81293306
:10015000310539F029813A812F5F3F4F3A83298356
:10016000F4CF8150EECF0F900F90DF91CF91089593
:100170001F920F920FB60F9211248F939F9385B108
:1001800092E0892785B98BB190E689278BB99F9139
:100190008F910F900FBE0F901F90189582E084B939
:1001A00080E68AB980918100886080938100809187
:1001B0006F00826080936F00789480E49CE9909354
:1001C0008900809388008091810085608093810000
:0E01D00082E085B980E68BB9FFCFF894FFCFAF
:00000001FF
