:100000000C94D1060C9435070C9435070C943507E5
:100010000C9435070C9435070C9435070C94350770
:100020000C9435070C9435070C94F51F0C94350788
:100030000C9435070C9435070C9435070C94350750
:100040000C94A0280C9435070C9435070C943507B4
:100050000C9413290C94A2210C9435070C943507A9
:100060000C9435070C94FD210C9435070C9435073E
:100070000C9435070C9435070C9435070C94350710
:100080000C943D400C9435070C9435070C943507BF
:100090000C9435070C943507000000CDAB19021203
:1000A00013FFFE1415160A0A2A2A2A2A2A2A2A4285
:1000B0006F6F74696E672025732A2A2A2A2A2A2AD2
:1000C0000A00496E76616C696420454550524F4D77
:1000D0002073657474696E677320646574656374F6
:1000E00065642E20526577726974696E672077693E
:1000F00074682064656661756C742076616C7565E2
:10010000732E0A004D41432061646472657373204D
:1001100025783A25783A25783A25783A25783A2587
:10012000783A25783A25780A0D0025732025732C16
:10013000206368616E6E656C202575002C206368F5
:1001400065636B207261746520257520487A000A0A
:10015000004F6E6C696E652E0A00303631363135CF
:100160003232323232323232323233323231313072
:10017000303132333435373932370A0D2A2A2A2AB8
:100180002A2A2A2A2A2A2A204A61636B6461772054
:100190004D656E75202A2A2A2A2A2A2A2A2A2A0AFC
:1001A0000D0020202020202020205B4275696C74E7
:1001B000204E6F7620323020323031335D202020C7
:1001C0002020200A0D002A20206D20202020202021
:1001D00020205072696E742063757272656E74208F
:1001E0006D6F6465202020202A0A0D002A202073CC
:1001F000202020202020202053657420746F20733D
:100200006E6966666572206D6F64652020202A0A1B
:100210000D002A20206E2020202020202020536541
:100220007420746F206E6574776F726B206D6F64CD
:10023000652020202A0A0D002A202063202020206B
:1002400020202020536574205246206368616E6E22
:10025000656C20202020202020202A0A0D002A2042
:10026000207020202020202020205365742052461A
:1002700020706F77657220202020202020202020F1
:100280002A0A0D002A20203620202020202020208D
:10029000546F67676C6520366C6F7770616E2020D5
:1002A0002020202020202A0A0D002A202072202031
:1002B000202020202020546F67676C6520726177B2
:1002C000206D6F6465202020202020202A0A0D0048
:1002D0002A2020642020202020202020546F6767BF
:1002E0006C65205253323332206F757470757420F0
:1002F00020202A0A0D002A20205320202020202000
:100300002020456E61626C6520736E65657A65724A
:10031000206D6F64652020202A0A0D002A202065A8
:100320002020202020202020456E657267792053F0
:1003300063616E20202020202020202020202A0AF7
:100340000D002A2020442020202020202020537728
:100350006974636820746F20444655206D6F64652E
:10036000202020202A0A0D002A2020522020202090
:1003700020202020526573657420287669612057FB
:10038000445429202020202020202A0A0D002A2041
:1003900020682C3F2020202020205072696E74207D
:1003A00074686973206D656E7520202020202020E0
:1003B0002A0A0D002A202020202020202020202072
:1003C000202020202020202020202020202020202D
:1003D0002020202020202A0A0D002A204D616B6554
:1003E0002073656C656374696F6E20617420616E43
:1003F000792074696D652062792020202A0A0D0019
:100400002A207072657373696E6720796F75722028
:1004100063686F696365206F6E206B6579626F61D9
:1004200072642A0A0D002A2A2A2A2A2A2A2A2A2A11
:100430002A2A2A2A2A2A2A2A2A2A2A2A2A2A2A2A1C
:100440002A2A2A2A2A2A2A2A2A0A0D000A0D496E4D
:1004500076616C696420696E7075740A0D000A0D0E
:100460004368616E6E656C206368616E67656420C9
:10047000746F2025642E0A0D000A0D4368616E6EAC
:10048000656C20756E6368616E6765642E0A0D0089
:10049000082008000A0D496E76616C696420696E57
:1004A0007075740A0D0020000A0D5472616E736D30
:1004B000697420706F776572206368616E67656428
:1004C00020746F2025642E0A0D000A0D5472616E8F
:1004D000736D697420706F77657220756E636861E3
:1004E0006E6765642E0A0D00082008004272696E6E
:1004F00067696E6720696E74657266616365206402
:100500006F776E0A0D004272696E67696E672069C7
:100510006E746572666163652075700A0D004A61CC
:10052000636B646177206E6F7720696E20736E69EC
:1005300066666572206D6F64650A0D004A61636BC3
:10054000646177206E6F77206265686176696E6797
:1005500020697473656C662E0A0D002A2A2A2A2ADD
:100560005741524E494E4720526164696F206D6178
:1005700079206F7665726865617420696E20746891
:100580006973206D6F64652A2A2A2A2A2A2A0A0D8D
:10059000002A2A2A2A2A2A2A2A4A61636B64617756
:1005A00020697320636F6E74696E756F75736C79F3
:1005B0002062726F616463617374696E672A2A2AAC
:1005C0002A2A2A2A0A0D002A2A2A2A2A2A2A2A2AF2
:1005D0006F6E206368616E6E656C202532642077D3
:1005E00069746820706F77657220002A2A2A2A2A87
:1005F0002A2A2A2A0A0D00507265737320616E79C7
:10060000206B657920746F2073746F702E0A0D0053
:100610004A61636B646177206E6F7720696E206E2C
:100620006574776F726B206D6F64650A0D004A61A7
:10063000636B64617720646F6573206E6F742070E4
:100640006572666F726D20366C6F7770616E2074A4
:1006500072616E736C6174696F6E0A0D004A61633A
:100660006B646177206E6F7720706572666F726D54
:100670007320366C6F7770616E207472616E736C6C
:100680006174696F6E730A0D004A61636B64617710
:1006900020646F6573206E6F74206361707475726F
:1006A0006520726177206672616D65730A0D004A7C
:1006B00061636B646177206E6F772063617074751E
:1006C00072657320726177206672616D65730A0DC1
:1006D000004A61636B64617720646F6573206E6F9D
:1006E00074206F757470757420646562756720730B
:1006F0007472696E67730A0D004A61636B64617797
:10070000206E6F77206F75747075747320646562E6
:10071000756720737472696E67730A0D000A5365FA
:100720006C656374203830322E31352E34204368A6
:10073000616E6E656C20696E2072616E6765203136
:10074000312D3236205B25645D3A20000A53656CFA
:10075000656374207472616E736D697420706F7755
:1007600065722028303D2B3364426D2031353D2D9C
:1007700031372E3264426D29205B25645D3A2000BA
:1007800043757272656E746C79204A61636B646143
:10079000773A0A0D20202A2057696C6C20006E6F72
:1007A00074200073656E642064617461206F7665E7
:1007B000722052460A0D20202A2057696C6C2000B6
:1007C0006E6F7420006368616E6765206C696E6B84
:1007D0002D6C6F63616C2061646472657373657303
:1007E00020696E73696465204950206D657373617B
:1007F0006765730A0D20202A2057696C6C20006EF3
:100800006F7420006465636F6D707265737320365A
:100810006C6F7770616E20686561646572730A0D34
:1008200020202A2057696C6C20006E6F7420004FC6
:10083000757470757420726177203830322E3135BE
:100840002E34206672616D65730A0D20202A2057B0
:10085000696C6C20006E6F7420004F757470757435
:10086000205253323332206465627567207374728C
:10087000696E67730A0D0020202A205553422045D7
:10088000746865726E6574204D41433A202530329C
:10089000783A253032783A253032783A2530327835
:1008A0003A253032783A253032780A0020202A2042
:1008B0003830322E31352E34204555492D36343AD4
:1008C00020253032783A253032783A253032783A5D
:1008D000253032783A253032783A253032783A2548
:1008E0003032783A253032780A0020202A204F70A2
:1008F000657261746573206F6E206368616E6E65EA
:100900006C202564207769746820545820706F77B4
:10091000657220000A0D0020202A2043757272653E
:100920006E742F4C6173742F536D616C6C657374AE
:1009300020525353493A2025642F25642F2564649F
:10094000426D0A0D0020202A2043757272656E7474
:100950002F4C6173742F536D616C6C6573742052EE
:100960005353493A2025642F25642F2D2D64426D61
:100970000A0D0020202A20436F6E66696775726138
:1009800074696F6E3A2025642C205553423C2D3EED
:1009900045544820697320006E6F742000616374B1
:1009A0006976650A0D0020202A204E657665722D35
:1009B0007573656420737461636B203E2025642029
:1009C00062797465730A0D00456E6572677920530C
:1009D00063616E3A0A002E000A002025643A202541
:1009E0003032646442200023003A000A00446F6EF3
:1009F000652E0A00456E746572696E67204446551F
:100A0000204D6F64652E2E2E0A0D0052657365749D
:100A100074696E672E2E2E0A0D00256320697320DF
:100A20006E6F7420612076616C6964206F707469E8
:100A30006F6E21206820666F72206D656E750A0DDD
:100A4000002563256325632E256364426D00010143
:100A5000010002010100030101000401010006017F
:100A60000100070101000A0101000B0101000C0156
:100A700001000D0101000E0101001101010014012E
:100A80000100160101000202010001010200020141
:100A900002000301020004010200050102001B0222
:100AA0000100010101010201010103010101040131
:100AB000010105010101010102010201020103011D
:100AC0000201000101FD020101FD010101FD06011C
:100AD00001FD030101FD040101FD41746D656C0020
:100AE000000000007261776D6F6465006364635F8E
:100AF00065636D3A20526563656976656420534588
:100B0000545F45544845524E45545F5041434B4510
:100B1000545F46494C5445523A20283078253034A9
:100B20005829200050524F4D495343554F5553209B
:100B300000414C4C5F4D554C5449434153542000A7
:100B40004449524543544544200042524F41444396
:100B500041535420004D554C5449434153542000B7
:100B60000A000403090409028A0004820980320889
:100B70000B00020206000D09040000000206000D31
:100B8000052400100105240600010D240F040000B7
:100B90000000120500000009040100020A00000024
:100BA0000705810240000107050202400001080B11
:100BB00002020202011009040200010202011005F2
:100BC0002400100105240103030424020205240665
:100BD0000203070584032000FF09040300020A0042
:100BE000000007058502200001070506022000011C
:100BF00009024000020208803209040000000206D7
:100C0000000D052400100105240600010D240F0429
:100C100000000000120500000009040100020A00A3
:100C200000000705810240000107050202400001A3
:100C30000902200001030780320904000002020CAF
:100C4000070C070583030800010705810240000126
:100C50000902430002010680320904000001020279
:100C6000FF0B0524001001052401000004240200EC
:100C7000052406000107058303080001090401009B
:100C8000020A000000070581024000010705020278
:100C900040000109028D000481058032080B00022A
:100CA0000202FF0B09040000010202FF0B052400F1
:100CB000100105240100000424020005240600019F
:100CC0000705830308000109040100020A0000006F
:100CD0000705810240000107050202400001080BE0
:100CE00002020202011009040200010202011005C1
:100CF0002400100105240103030424020205240634
:100D00000203070584032000FF09040300020A0010
:100D100000000705850220000107050602200001EA
:100D20001201000202000040EB03219900100102B1
:100D300003050182028103303132333435363738CE
:100D4000396162636465660041746D656C004A6177
:100D5000636B64617720364C6F5750414E2041647D
:100D60006170746F7200524E4449532B4465627532
:100D70006700524E444953004344432D45454D00BE
:100D80004344432D45434D004344432D45434D2BA0
:100D9000444542554700446562756720506F727440
:100DA000000011241FBECFEFD0E2DEBFCDBF04B6DE
:100DB00003FE36C014BE8091501A9091511AA09132
:100DC000521AB091531A8A3C9C4AA244BC4DA1F4D9
:100DD0001092501A1092511A1092521A1092531ADD
:100DE00088E10FB6F89480936000109260000FBE07
:100DF000E0E0F0EF099520C08091501A9091511ACF
:100E0000A091521AB091531A0196A11DB11D809361
:100E1000501A9093511AA093521AB093531A0CC0BF
:100E200086EC9CEAA2E4BCED8093501A9093511A90
:100E3000A093521AB093531A12E0A0E0B1E0E8EA8E
:100E4000F2E900E00BBF02C007900D92AC39B10788
:100E5000D9F71AE1ACE9B2E001C01D92A035B107A3
:100E6000E1F70E94A7430C9452490C9400001F9391
:100E7000CF93DF93CDB7DEB728970FB6F894DEBFD8
:100E80000FBECDBF85E090E00E945E48182F909580
:100E9000911709F436C0EEE9F0E0DE011196849175
:100EA0008D93319680E0E63AF807C9F748E050E0C4
:100EB00067E070E0CE0101960E946448EBE9F0E043
:100EC00085919491BC0183E090E00E947C48E9E91F
:100ED000F0E085919491BC0181E090E00E947C4813
:100EE000E8E9F0E0649180E090E00E946E48EDE96E
:100EF000F0E01491712F7095612F85E090E00E94D1
:100F00007C48812F28960FB6F894DEBF0FBECDBF68
:100F1000DF91CF911F91089580E091E00E944F2CC6
:100F200088E091E00E944F2C80E191E00C944F2CDE
:100F30000F931F93CF93DF930E943009892BC1F049
:100F400080E191E00E946E2CEC01009719F4C0E062
:100F5000D0E02DC00E947209998388830E946D0998
:100F60009B838A83CE0104960E94A2088CAB1FC08B
:100F700088E091E00E946E2C8C01009741F380E0A4
:100F800091E00E946E2CEC01F80191838083009720
:100F9000F1F202960E94B50899838883BE016E54CF
:100FA0007F4FCE018E579F4F0E941D0AE801CE0150
:100FB000DF91CF911F910F910895FC018081918164
:100FC000BC016E547F4F8E579F4F0C941D0ACF93D8
:100FD000DF93EC01BC0188E091E00E94B92C892BE1
:100FE00051F06881798180E091E00E94942CBE01EB
:100FF00088E091E00AC0BE0180E191E00E94B92C36
:10100000892B39F0BE0180E191E0DF91CF910C9402
:10101000942CDF91CF9108950F931F93CF93DF937B
:101020001F92CDB7DEB78C01BC0188E091E00E9431
:10103000B92C892BB1F0F80100811181F80161917F
:101040007191CF010E94EE09B8016E547F4FC80123
:101050008E579F4F0F90DF91CF911F910F910C945E
:101060002E0AB80180E191E00E94B92C892BF9F099
:101070000E94C609F80160817181828193810E947A
:10108000EE09F80184A990E00E948809F80144A9BA
:1010900049830E942909B8016C5F7F4F498150E064
:1010A0000F90DF91CF911F910F910C94C1450F903C
:1010B000DF91CF911F910F910895CF93DF93EC01B2
:1010C000BC0188E091E00E94B92C892B29F028818D
:1010D00039812E5F3F4F0CC0BE0180E191E00E943C
:1010E000B92C892B19F02A813B8102C020E030E025
:1010F000C901DF91CF910895DC01ED91FC918081D0
:101100009181089528E0629FB00111246E50710909
:10111000FC0120813181260F371FC9010895FC0190
:1011200020818181E22FF82FE60FF11DE60FF11DDE
:10113000EE57FF4F808191810895089580E3809359
:10114000BC090895CF93DF932091BC0930E0C0E340
:10115000D0E0C21BD30B2154364FAE01B9010E941F
:10116000C145CE01DF91CF910895CF92DF92EF92EA
:10117000FF920F931F93CF93DF936C01E090BA0916
:10118000F090BB096091BC0970E08701005D1F4FC2
:10119000061B170B01381105F0F4C0E3D0E0C61BA5
:1011A000D70BCB018154964FAE01BC01C6010E9402
:1011B000C145CC0DDD1D2091BD093091BE09809146
:1011C000B8099091B909280F391FA701B901CE01BB
:1011D0000E94C14502C000E010E0C801DF91CF913C
:1011E0001F910F91FF90EF90DF90CF900895909115
:1011F000BC09980F9093BC0908954091BA09509189
:10120000BB099C014817590798F08091B809909143
:10121000B909820F931F9093B9098093B809421BB3
:10122000530B5093BB094093BA0921E030E002C050
:1012300020E030E0C90108959093BB098093BA097A
:1012400008952091B8093091B9092151364FC9014B
:1012500008952091BC0930E02154364FC90108950A
:1012600021E030E08091BD099091BE098F5E9940E8
:1012700011F420E030E0C90108950E943009892B63
:1012800069F02FEE39E06091BD097091BE0940917F
:10129000BA095091BB09C9010C94C1452091B80904
:1012A0003091B90921153105B9F08091BA099091B1
:1012B000BB09C096EFEEF9E005C0DF01A20FB31F36
:1012C0004C914193AF014F5B594048175907ACF31C
:1012D0001092B9091092B80908958091BD099091B2
:1012E000BE0908958091BA099091BB090895909123
:1012F000BC0980E3891B089580E39091BC09891B98
:101300002091BA093091BB09280F311DC9010895F8
:101310001F93CF93DF93EC011091BC09812F90E0D4
:101320008C179D076CF00E947C098C0F9D1F8138E3
:10133000910530F41C1B1093BC0921E030E002C081
:1013400020E030E0C901DF91CF911F910895CF9344
:10135000DF93E0EEF1E11192119282E1E031F807C2
:10136000D1F7C0E0D0E0CE0123E0880F991F2A9585
:10137000E1F76DEA71E080549E4E0E942A29219681
:10138000C430D10581F7DF91CF9108951092B9094A
:101390001092B8091092BB091092BA0980E38093A9
:1013A000BC098FEE99E09093BE098093BD090C941F
:1013B000A7090F931F93CF93DF938C01EB010E943A
:1013C000C6091093BE090093BD09D093BB09C09311
:1013D000BA09DF91CF911F910F9108950F931F9339
:1013E000CF93DF9300D000D0CDB7DEB76B837C8383
:1013F00089839A830E94C6096B81062F7C81172FEF
:1014000089819A810138110510F000E810E0A801E7
:10141000BC018091BD099091BE090E94C145109305
:10142000BB090093BA09C8010F900F900F900F905D
:10143000DF91CF911F910F91089520E3E0EEF1E14C
:10144000DC0101900D922A95E1F780E2E0ECF1E1F8
:10145000DB0101900D928A95E1F7089520E3FC01EC
:10146000A0EEB1E101900D922A95E1F780E2FB0137
:10147000A0ECB1E101900D928A95E1F70895E82F73
:10148000F0E0EE0FFF1FE052FE4E7183608381E0BB
:1014900090E00895E82FF0E0EE0FFF1FE052FE4EBF
:1014A00080819181089528E0829FC001112480509D
:1014B0009F4E0E942A2981E090E0089598E0899F3C
:1014C0009001112420503F4EC90108950E945826D2
:1014D0008F70863028F04DE28F3019F421E302C07E
:1014E0004BE220E390E0FC01E659FE4F6491FC01E1
:1014F000E65AFE4F8491203319F4542F40E201C084
:1015000051E3282F332727FD30953F938F93862F64
:10151000992787FD90959F936F93852F992787FD36
:1015200090959F935F931F924F9381E49AE09F93CE
:101530008F930E9417468DB79EB70A960FB6F89400
:101540009EBF0FBE8DBF08958AE791E09F938F9352
:101550000E94174682EA91E09F938F930E9417465C
:1015600086EC91E09F938F930E9417468CEE91E05A
:101570009F938F930E94174682E192E09F938F93EF
:101580000E94174688E392E09F938F930E9417462C
:101590008EE592E09F938F930E94174684E892E035
:1015A0009F938F930E9417468AEA92E09F938F93AE
:1015B0000E94174680ED92E09F938F930E941746FA
:1015C00086EF92E09F938F930E9417468CE193E001
:1015D0009F938F930E9417460E94BA222DB73EB761
:1015E000285E3F4F0FB6F8943EBF0FBE2DBF882335
:1015F00041F082E493E09F938F930E9417460F90EF
:101600000F9088E693E09F938F930E9417468EE891
:1016100093E09F938F930E94174684EB93E09F93F0
:101620008F930E9417468AED93E09F938F930E94B9
:10163000174680E094E09F938F930E94174686E2BE
:1016400094E09F938F930E9417468DB79EB70C9698
:101650000FB6F8949EBF0FBE8DBF08952F923F9294
:101660004F925F926F927F928F929F92AF92BF92B2
:10167000CF92DF92EF92FF920F931F93CF93DF935E
:10168000CDB7DEB7E9970FB6F894DEBF0FBECDBF7A
:10169000182F2091710A3091720A2130310509F01A
:1016A00048C08D3039F00CF052C0883049F18A3092
:1016B00009F062C4E091730AEE23F9F0F0E0EC580F
:1016C000F54F108284E79AE00E9476458C010B97D3
:1016D000409718F08CE494E06DC0802F0E94B624EF
:1016E0001F930F938EE594E09F938F930E9417466C
:1016F0000F900F900F900F9063C089E794E05AC04D
:101700008091730A882309F437C481508093730A47
:1017100080E994E064C08091730A60914C1A7091E2
:101720004D1A823008F460C087E090E00E94EB45DB
:1017300023C42230310509F068C08D3071F03CF4CB
:10174000883009F442C08A3009F016C406C0812FDF
:1017500080538A3008F010C4DECFE091730AEE2384
:1017600039F1F0E0EC58F54F108284E79AE00E94DE
:1017700076458C018031910518F084E994E01AC017
:1017800086EA94E09F938F930E941746802F0E94D1
:1017900056261F930F9388EA94E09F938F930E949D
:1017A00017460F900F900F900F900F900F9008C05A
:1017B0008AEC94E09F938F930E9417460F900F90AE
:1017C0001092720A1092710AD7C38091730A88230B
:1017D00009F4D2C381508093730A88EE94E09F93FA
:1017E0008F930E94174666C3812F992787FD909596
:1017F0000E94EB458091730AE82FF0E0EC58F54F1A
:1018000010838F5F8093730AB7C38091401A85FD60
:101810006DC0133509F476C00CF5163309F4BCC05D
:101820007CF41D3009F4A8C324F41A3009F094C3E1
:10183000A3C31B3209F43FC01D3209F08DC333C06E
:101840001F3371F124F41D3309F086C334C01434FE
:1018500009F433C3123509F07FC350C31D3609F4B0
:10186000FFC07CF4143609F4C3C024F4133609F025
:1018700073C3D6C0153609F430C2183609F06CC3EC
:101880000FC0103709F4D9C024F41E3609F064C320
:1018900072C0123709F496C0133709F05DC315C042
:1018A0000E94A40A69C38CEE94E09F938F930E94D8
:1018B000174680E007C086E095E09F938F930E94D3
:1018C000174681E00E942811F5C28EE195E09F93B2
:1018D0008F930E9417468091401A8D7F8B7F809353
:1018E000401A0E94B3240E94CA24E4C20E945724D2
:1018F0008CE395E09F938F930E9417468091401A46
:101900008F7D8BC00E945826833040F48BE595E094
:101910009F938F930E9417460F900F900E94662707
:1019200081E995E09F938F930E9417460E94B3240C
:101930001F928F9387EC95E09F938F930E94174699
:101940000E94660A8BEE95E09F938F930E94174644
:1019500087EF95E09F938F930E9417460E94A222E3
:101960008091401A80628093401A0FB6F894DEBFCF
:101970000FBECDBF01C380E196E09F938F930E947D
:1019800017468091401A826084608093401A0E94BA
:10199000B3240E94B6248EC280FF0AC08EE296E075
:1019A0009F938F930E9417468091401A8E7F35C077
:1019B0008DE596E09F938F930E9417468091401A81
:1019C00081602BC083FF0AC089E896E09F938F93C4
:1019D0000E9417468091401A877F1FC08FEA96E0C9
:1019E0009F938F930E9417468091401A886015C07C
:1019F00084FF0AC081ED96E09F938F930E94174663
:101A00008091401A8F7E09C089EF96E09F938F9353
:101A10000E9417468091401A80618093401A4AC202
:101A20000E94B3241F928F938DE197E09F938F9331
:101A30000E94174681E090E00CC00E9458261F9239
:101A40008F938CE497E09F938F930E94174682E0D8
:101A500090E09093720A8093710A1092730A88C280
:101A600080E897E09F938F930E9417468091401AD9
:101A70000F900F9081FD08C08EE997E09F938F93A0
:101A80000E9417460F900F9083EA97E09F938F93E1
:101A90000E9417468091401A0F900F9082FD08C057
:101AA00080EC97E09F938F930E9417460F900F90C2
:101AB00085EC97E09F938F930E9417468091401A80
:101AC0000F900F9080FD08C08FEF97E09F938F934A
:101AD0000E9417460F900F9084E098E09F938F9399
:101AE0000E9417468091401A0F900F9083FD08C006
:101AF0008AE298E09F938F930E9417460F900F9071
:101B00008FE298E09F938F930E9417468091401A2E
:101B10000F900F9084FD08C085E598E09F938F9308
:101B20000E9417460F900F908AE598E09F938F933D
:101B30000E941746809132011F928F93809131014C
:101B40001F928F93809130011F928F9380912F016C
:101B50001F928F9380912E011F928F9380912D0160
:101B60001F928F9387E798E09F938F930E94174669
:101B70008091BF111F928F938091BE111F928F93FE
:101B80008091BD111F928F938091BC111F928F93F2
:101B90008091BB111F928F938091BA111F928F93E6
:101BA0008091B9111F928F938091B8111F928F93DA
:101BB0008CEA98E09F938F930E9417460FB6F89493
:101BC000DEBF0FBECDBF0E94B3241F928F938AEE5B
:101BD00098E09F938F930E9417460E94660A84E1C3
:101BE00099E09F938F930E941746F09027130F90D0
:101BF0000F900F900F900F900F900091231310E013
:101C00000C551109FF20E9F00E9441272F2D30E0EB
:101C10002C5531093F932F931F930F9390E08C55D0
:101C200091099F938F9387E199E09F938F930E94EF
:101C30001746109227130FB6F894DEBF0FBECDBF24
:101C400015C00E9441271F930F9390E08C55910976
:101C50009F938F9385E499E09F938F930E941746FB
:101C60000F900F900F900F900F900F908091131383
:101C70001F928F9383E799E09F938F930E9417465B
:101C80000F900F900F900F9080912C01811108C040
:101C900088E999E09F938F930E9417460F900F90C9
:101CA0008DE999E09F938F930E9417460F900F90B4
:101CB000E0E5FAE1808191818234924439F0E05587
:101CC000FA41FF93EF9386EA99E04EC1EC59FF4F3A
:101CD000EB3930E2F30770F34FC188EC99E09F9342
:101CE0008F930E9417460E94203E0E94B324382EF4
:101CF000AA24A394B12CAC0EBD1E82E2F501119270
:101D00008A95E9F76E01F3E2CF0ED11C81E1F6016D
:101D100011928A95E9F70F900F90E12CF12C2C2C61
:101D2000DEAAAFAAB8AEB6ED4B2EB9E05B2E3AC034
:101D3000892F99AF0E94CA24F0E5FA95F1F70E9425
:101D40004127F401208199AD28170CF4282FF401C4
:101D500021934F01F30120813181280F311D87FD2F
:101D60003A95219331933F019F5F9B3109F7E7FE3D
:101D70000FC07698C7018F779927892B51F45F920E
:101D80004F920E9417460E94203E0F900F9001C074
:101D9000769A0E94A222FFEFEF1AFF0AE11420E1D7
:101DA000F20651F0022D1EA93FA93CAB28AD2DAB88
:101DB000350146019BE0BCCF832D0E94B62488EDFF
:101DC00099E09F938F930E9417460F900F905BE0CE
:101DD000E52EF12C6AEDC62E69E0D62E77EEA72E01
:101DE00079E0B72EE9EE8E2EE9E09E2EFBEE6F2E07
:101DF000F9E07F2EECA9FDA981919191FDABECABAF
:101E0000F8012081332727FD3095880F892F881FFF
:101E1000990B9195522E8217930708F4582E2C5542
:101E200031093F932F93FF92EF92DF92CF920E945E
:101E300017460F900F900F900F900F900F90212C3E
:101E4000312C0DC0BF92AF920E941746F8018081DD
:101E500081508083FFEF2F1A3F0A0F900F9052108E
:101E6000F1CF0AC09F928F920E941746F80180819D
:101E7000815080830F900F90F8018081181694F3A1
:101E80007F926F920E9417460E94203E0F5F1F4F65
:101E9000FFEFEF1AFF0A0F900F902BE1E216F1040B
:101EA00009F0A8CF8DEE99E09F938F930E9417467B
:101EB0000E94203E0F900F905FC084EF99E09F93A7
:101EC0008F930E9417460E94203E5F9A5D987798F4
:101ED00076980F900F908AE03FEF90E7E2E0315064
:101EE0009040E040E1F700C000008150A9F75F9802
:101EF0005D9A779A769A0E94C8223EC08BE09AE05B
:101F00009F938F930E9417460E94203E5F9A5D9890
:101F1000779876980F900F908AE0FFEF20E732E0F5
:101F2000F15020403040E1F700C000008150A9F797
:101F30008091E00081608093E00084E19FEFE0E722
:101F4000F2E09150E040F040E1F700C00000815025
:101F5000A9F70E94AD2210C0212F332727FD30950D
:101F60003F931F938AE19AE09F938F930E941746B5
:101F70000F900F900F900F90E9960FB6F894DEBF78
:101F80000FBECDBFDF91CF911F910F91FF90EF90CA
:101F9000DF90CF90BF90AF909F908F907F906F9089
:101FA0005F904F903F902F900895CF93DF93EC0177
:101FB00088819981009729F08D3C910509F087C0AF
:101FC0008CC080914C1A90914D1A9093780A80930E
:101FD000770A80911012882321F08150809310128B
:101FE00001C0769A80911313882309F45DC00E9482
:101FF000C33D81709091790A891721F10E94C33DF8
:1020000081708093790A882369F080914C1A9091AD
:102010004D1A90937B0A80937A0A0E94B73D0E94E2
:10202000BC3D08C080917A0A90917B0A90934D1A2A
:1020300080934C1A80914C1A90914D1A90937D0A7E
:1020400080937C0A80917E0A843048F09091481AEF
:10205000992329F010927E0A0E94203E03C08F5FD0
:1020600080937E0A80917C0A90917D0A90934D1A0C
:1020700080934C1A04C00E94FB3D0E942E0B0E94CC
:10208000D33D8111F8CF8091401A84FF09C080911F
:10209000770A9091780A90934D1A80934C1A04C055
:1020A00010924D1A10924C1A80911313815882305D
:1020B00018F461E070E002C06DE770E08FE79AE02D
:1020C0000E94BB2D8DEC90E09983888304C0198217
:1020D000188283E00AC081E008C08FE79AE00E947E
:1020E000E22D892B09F075CFF6CFDF91CF910895BE
:1020F000769885E080931012089582E08093E9003D
:102100008091E800807208950C94442480915212CA
:10211000882339F081508093521282FF02C05D986B
:1021200001C05D9A80911112882339F0815080930B
:10213000111282FF02C077980895779A0895CF937D
:10214000DF93EC0188819981009721F083329140DF
:10215000C9F53CC00E94861080911313833071F042
:1021600028F4813041F08230B1F40DC0813819F08B
:10217000823889F408C00E94501407C00E945E187B
:1021800061E070E00BC00E94E9198111F9CF4F9A0C
:102190006FE070E003C04F9A6FE170E087E89AE06B
:1021A0000E94BB2D83E291E09983888304C00E9442
:1021B0007D10811102C081E011C00E944424811170
:1021C000C9CFF9CF1982188283E008C087E89AE066
:1021D0000E94E22D892B09F0BDCFE9CFDF91CF918D
:1021E00008958091521288608093521290E0019776
:1021F00082FD5D980895809111128860809311127C
:1022000090E0019782FD5D98089520912C01222392
:10221000D9F0209113132223B9F0233071F028F460
:10222000213041F0223081F40BC0213819F02238DE
:1022300059F406C00E943A1505C00E94D81802C081
:102240000E94831A811103C00E94A22280E0089597
:10225000CF93C82F80912C018C17B9F09091131354
:10226000923071F018F4913081F405C0913819F072
:10227000923859F405C0C0932C010E945A1105C030
:102280008C2F0E94E119C0932C0180E0CF9108951A
:1022900026E0EDE2F1E0DC0101900D922A95E1F7F4
:1022A000089526E0FC01ADE2B1E001900D922A957F
:1022B000E1F7089581E08093940A089584E090E026
:1022C000A0E0B0E88093531290935412A09355125B
:1022D000B093561284E090E0A0E0B0E080936312E7
:1022E00090936412A0936512B093661280E190E01F
:1022F000A0E0B0E08093671290936812A0936912F7
:10230000B0936A1280915F1290916012A091611255
:10231000B0916212823022E0920721E0A207B1055B
:1023200009F4D5C008F05DC08C3021E09207A20707
:10233000B10580F58A3021E09207A207B10508F0C7
:10234000DCC0853021E09207A207B105A8F48330F4
:1023500021E09207A207B10508F0B9C0813021E061
:102360009207A207B10509F4A1C082309140A140B3
:10237000B10509F080C1ABC0863021E09207A20709
:10238000B10509F4B0C087309140A140B10509F012
:1023900072C1AEC08F3021E09207A207B10509F4E7
:1023A000EBC050F48D3021E09207A207B10509F48B
:1023B000AEC008F0C1C0A6C0843121E09207A207D8
:1023C000B10509F4C7C0863121E09207A207B10523
:1023D00009F4CDC081319140A140B10509F04BC154
:1023E000B4C0833021E09207A207B20709F4F0C01D
:1023F00048F5843021E0920722E0A207B10509F4F4
:1024000003C188F4823021E0920722E0A207B105DF
:1024100009F4F1C008F001C181309140A240B1053A
:1024200009F029C1DFC0853021E0920722E0A20730
:10243000B10509F44CC081309140A140B14008F48D
:102440001AC1A6C0843021E0920722E0A20721E051
:10245000B207B0F4813021E0920722E0A20721E028
:10246000B207A8F5843021E09207A207B20709F469
:10247000B4C085309140A140B14009F0FCC027C0F4
:10248000823021E09207A2072DEFB20709F4EAC0DB
:10249000863021E09207A2072DEFB207C1F0811527
:1024A0009140A140BD4F09F0E6C0C8C08CE890E063
:1024B000A0E0B0E08093631290936412A093651241
:1024C000B09366124CE850E06EE47AE030C01092AF
:1024D0006B1210926C1210926D1210926E1280E0BC
:1024E00090E0DC01D4C084E095E0A0E0B0E09DC0C5
:1024F00084EC99E0A0E0B0E098C086E690E0A0E02F
:10250000B0E093C08FEF9FEFAFEFB0E08EC088E0F8
:1025100090E0A0E0B0E08093631290936412A093E7
:102520006512B093661248E050E06AED7AE08BE6FF
:1025300092E10E949445D3CF80918F0A9091900AA6
:10254000A091910AB091920A70C082E195E0A0E05A
:10255000B0E06BC081E090E0A0E0B0E020912C0101
:10256000222309F462C080E090E0DC015EC080E0DC
:1025700090E1A0E0B0E059C084E095E0A0E0B0E0D8
:1025800080936B1290936C12A0936D12B0936E12A5
:1025900010926F12109270121092711210927212A9
:1025A0008BE692E10E94481180916312909164122F
:1025B000A0916512B09166120296A11DB11D809383
:1025C000631290936412A0936512B093661287CF42
:1025D00080E090E0A0E0BEE028C081E090E0A0E0D4
:1025E000B0E023C08091011390910213A0910313D6
:1025F000B09104131AC08091051390910613A09115
:102600000713B091081311C080910D1390910E1310
:10261000A0910F13B091101308C0809109139091ED
:102620000A13A0910B13B0910C1380936B1290932B
:102630006C12A0936D12B0936E1251CF86E090E0B1
:10264000A0E0B0E08093631290936412A0936512AF
:10265000B093661286E0EBE6F2E1DF011D928A9507
:10266000E9F73DCF10926312109264121092651236
:102670001092661234CF109263121092641210926C
:1026800065121092661281E090E0A0E0B0EC8093B9
:102690005F1290936012A0936112B0936212409106
:1026A0006312509164126091651270916612DB01A1
:1026B000CA014896A11DB11D8093571290935812DC
:1026C000A0935912B0935A12452B462B472B41F435
:1026D00010926712109268121092691210926A1288
:1026E0008093930A0895CF93DF93EB0147E050E086
:1026F00064EE7AE00E94A645892B51F4988180917E
:10270000401A903311F4877F01C088608093401A8B
:10271000DF91CF9108958091E800877F8093E80052
:102720002091930A80E01FC09091E80090FFFCCFB9
:10273000382F305C13C0831306C09091E8009E7F51
:102740009093E80010C0E82FF0E0ED5AFD4E408174
:102750004093F1008F5F91509093930A9091930A68
:102760009111E9CFEACF9091930A992321F09091AA
:10277000E80092FFD9CF8091E80082FD10C0822F3F
:102780008F7349F48091E80080FFFCCF8091E800CE
:102790008E7F8093E8008091E80082FFFCCF8091DB
:1027A000E8008B7F8093E8008091E8008F7780932A
:1027B000E80081E008950F931F932091E80020FF27
:1027C00046C02091930A211142C007E010E020E0AA
:1027D00030E000935312109354122093551230930B
:1027E000561204E110E020E030E0009357121093FD
:1027F00058122093591230935A1260935B127093BF
:102800005C1280935D1290935E12E3E5F2E1819198
:102810008093F10082E1E736F807C9F78091E8007C
:102820008E7F8093E8008091E80080FFFCCF80914C
:10283000E80082FFFCCF8091E8008B7F8093E80066
:102840008091E8008F778093E80081E001C080E00C
:102850001F910F9108951F93CF93DF93C9EED0E09E
:1028600083E0888360E081EC0E946A1B81E08883BA
:1028700064E381E80E946A1B12E0188364E380E845
:102880000E946A1BEAEEF0E088E0808310821083E9
:10289000108284E080831082DF91CF911F91089590
:1028A000FF920F931F93CF93DF938091FF1290912C
:1028B0000013029709F0D7C080913501882321F0D9
:1028C0000E94E739109235015F9A82E08093E90017
:1028D0008091E80082FFC5C080910B1490910C1488
:1028E000892B09F0BEC09091F2009C3260F4809177
:1028F000E8008B7F8093E8008091E8008F778093D9
:10290000E80021E001C020E0E2E1F2E18091F10085
:10291000819382E1EE33F807C9F784EDF82EF90EC2
:102920008091121290911312A0911412B09115126D
:102930000197A105B10559F08091E8008B7F809344
:10294000E8008091E8008F778093E80021E0809193
:102950001E1290911F12A0912012B0912112892B6A
:102960008A2B8B2B09F47DC021117BC00E94F110B2
:1029700020911A1230911B12245231098091E800E3
:102980008F7E8093E80080E090E025C04091F100C8
:10299000FA9401F54091E8004B7F4093E8004091A4
:1029A000E8004F774093E8004091E80042FD04C002
:1029B0004091E80044FFF8CF4091E80044FF06C092
:1029C0008091E8008F7E8093E80008C0F090F200CC
:1029D000FF2021F0019628173907C1F6C0911E1279
:1029E000D0911F1205E114E11AC08091F100F801A5
:1029F00081938F012197FA9491F4209781F080912F
:102A0000E8008B7F8093E8008091E8008F778093C7
:102A1000E8000E94401B811124C0F090F200209732
:102A200021F78091E8008B7F8093E8008091E80097
:102A30008F778093E80080911E1290911F12A091D1
:102A40002012B09121128331F5E09F07A105B10555
:102A500040F490930C1480930B1485E194E10E9450
:102A6000753C81E001C080E0DF91CF911F910F9113
:102A7000FF9008950F931F93CF93DF93EC018B0189
:102A800081E090E0A0E0B0E08093121290931312E6
:102A9000A0931412B093151284E290E0A0E0B0E08D
:102AA00080931A1290931B12A0931C12B0931D12C4
:102AB000AB0160E070E040931E1250931F126093D0
:102AC0002012709321121092261210922712109247
:102AD0002812109229121092221210922312109290
:102AE00024121092251210922A1210922B12109278
:102AF0002C1210922D1210922E1210922F12109250
:102B0000301210923112109232121092331210922F
:102B1000341210923512109236121092371210920F
:102B200038121092391210923A1210923B121092EF
:102B30003C1210923D12445D5F4F6F4F7F4F4093A8
:102B4000161250931712609318127093191281E0A5
:102B50008093E9008091E8008F778093E8000E94DD
:102B6000C21A81112AC0E2E1F2E181918093F10061
:102B700082E1EE33F807C9F70C0F1D1F10C08991D1
:102B80008093F1008091E80085FD09C08091E80004
:102B90008F778093E8000E94C21A81110EC0C0177F
:102BA000D10769F78091E8008F778093E8000E9451
:102BB000FB100E94161B91E0811190E0892FDF919C
:102BC000CF911F910F91089565FF02C081E001C070
:102BD00080E00C9441240F931F93CF93DF93CDB7E4
:102BE000DEB769970FB6F894DEBF0FBECDBF009178
:102BF0006712109168129801255A3D4EF90184819F
:102C00009581A681B78183339105A105B10508F0AF
:102C100082E390E018C0492F50E061E070E06C0F53
:102C20007D1F640F751F440F551FD901ED91FC9155
:102C3000E00FF11FE40FF51FE55AFD4E4081FB0147
:102C4000408382509F5F181634F380915F129091F9
:102C50006012A0916112B09162128231F1E09F077F
:102C6000AF07B10509F46FC060F48E30E1E09E0754
:102C7000AE07B10529F18F309140A140B105F1F5C2
:102C800062C08B3142E0940741E0A407B10531F006
:102C900083309140A140B14089F555C0D90150968B
:102CA0004D915C9151971C966D917C911D97600F91
:102CB000711F655A7D4ECE0101960E94731343C069
:102CC000F901608171818281938160938F0A709391
:102CD000900A8093910A9093920A6115710581057B
:102CE000910529F00E94E41582E090E002C081E0A5
:102CF00090E0909300138093FF1225C085E090E050
:102D0000A0E0B0E88093531290935412A093551210
:102D1000B093561280E190E0A0E0B0E080935712AB
:102D200090935812A0935912B0935A1281E090E0F8
:102D3000A0E0B0EC80935F1290936012A0936112B8
:102D4000B093621220C085E090E0A0E0B0E88093EC
:102D5000531290935412A0935512B093561280E1DF
:102D600090E0A0E0B0E08093571290935812A093A7
:102D70005912B0935A1210925F1210926012109270
:102D800061121092621280E18093930A69960FB6E5
:102D9000F894DEBF0FBECDBFDF91CF911F910F9191
:102DA00008952091E800277F2093E8009C018D3A48
:102DB000910510F02CEA30E08091E8008F7B809341
:102DC000E80080E041E034C09091E8005091E800D4
:102DD00056FB552750F9541729F092FB992790F983
:102DE0009413F2CF9091E80092FF1CC0982F905C52
:102DF0005091F100E82FF0E0ED5AFD4E50838F5FC7
:102E000021503109891719F02115310589F7909161
:102E1000E8009B7F9093E8009091E8009F77909363
:102E2000E80006C08091E8008F7B8093E80003C033
:102E30002115310549F68091E8008E7F8093E800E6
:102E40008091531290915412A0915512B091561244
:102E500084309105A105B10509F4A0C058F4823071
:102E60009105A105B105A1F00397A105B10509F0F0
:102E7000F0C08AC086309105A105B10509F494C05F
:102E800008F48FC00897A105B10509F0E2C0BDC0E4
:102E900082E090E0A0E0B0E8809353129093541247
:102EA000A0935512B093561284E390E0A0E0B0E0F6
:102EB0008093571290935812A0935912B0935A12BC
:102EC00081E090E0A0E0B0E0809363129093641200
:102ED000A0936512B0936612809367129093681264
:102EE000A0936912B0936A1210925F12109260124E
:102EF000109261121092621280936B1290936C1276
:102F0000A0936D12B0936E1210926F121092701205
:102F10001092711210927212809373129093741225
:102F2000A0937512B09376128CE495E0A0E0B0E027
:102F30008093771290937812A0937912B0937A12BB
:102F400083E090E0A0E0B0E080937B1290937C124D
:102F5000A0937D12B0937E1210927F121092801275
:102F60001092811210928212109283121092841287
:102F7000109285121092861281E090E090930013D7
:102F80008093FF1284E362C05F9A5D987798769889
:102F90008091E8008E7F8093E800FFCF0E945E1151
:102FA0005BC00E94EB1558C0109200131092FF12E4
:102FB00086E090E0A0E0B0E8809353129093541222
:102FC000A0935512B093561280E190E0A0E0B0E0DB
:102FD0008093571290935812A0935912B0935A129B
:102FE00010925B1210925C1210925D1210925E129F
:102FF00081E090E0A0E0B0E080935F1290936012D7
:10300000A0936112B093621220C088E090E0A0E02B
:10301000B0E88093531290935412A0935512B0933A
:10302000561280E190E0A0E0B0E0809357129093B8
:103030005812A0935912B0935A1210925F12109224
:103040006012109261121092621280E18093930AD2
:1030500003C0779880E008958091E80080FFFCCF5E
:103060008091E80082FF0AC08091E8008B7F809306
:10307000E8008091E8008F778093E80081E08093FA
:10308000940A08951F93CF93DF93C9EED0E081E0B7
:10309000888364E381E80E946A1B12E0188364E37A
:1030A00080E80E946A1BEAEEF0E01083108284E060
:1030B00080831082DF91CF911F9108951F93CF934A
:1030C000DF9380913601882321F00E94E739109226
:1030D00036015F9A82E08093E9008091E80082FFE8
:1030E00063C080910B1490910C14892B09F05CC083
:1030F0001091F200123050F48091E8008B7F8093A1
:10310000E8008091E8008F778093E8009091F100CB
:10311000909312128091F1008093131287FD44C0A6
:10312000D82FDF7380E0C82FC92B2097E9F1125008
:103130000E94F110CE01E5E1F4E12091F10021932C
:1031400001971150A9F40097A9F02091E8002B7F76
:103150002093E8002091E8002F772093E800209149
:10316000E80022FFFCCF1091F2001111E6CF02C05F
:10317000009719F78091E8008B7F8093E800809199
:10318000E8008F778093E8002497C33185E0D80763
:1031900058F4D0930C14C0930B1485E194E1DF91A3
:1031A000CF911F910C94753CDF91CF911F910895A1
:1031B000EF92FF920F931F93CF93DF9300D000D035
:1031C000CDB7DEB78C017B0181E08093E9000E94DE
:1031D000C21A811153C0C70104968093F100892F50
:1031E00099278F7399278093F100E00EF11E12C08A
:1031F000F80181918F018093F1008091E80085FDB5
:1032000009C08091E8008F778093E8000E94C21A7D
:10321000811134C00E151F0559F78EED89838DEA93
:103220008A838EEB8B838FEE8C838E010F5F1F4F13
:103230007E01F5E0EF0EF11CF80181918F01809382
:10324000F1008091E80085FF04C00E151F05A1F76D
:103250000AC08091E8008F778093E8000E94C21A2C
:10326000882399F30BC08091E8008F778093E80062
:103270000E94FB100E94161B91E0811190E0892FA3
:103280000F900F900F900F90DF91CF911F910F91A2
:10329000FF90EF9008952091F1003091F100932F6D
:1032A00080E0820F911D9093960A8093950A8091F9
:1032B000E800877F8093E8008091E8008E7F80930C
:1032C000E8000E94EC1A8091960A8F938091950AEB
:1032D0008F938CEE9AE09F938F930E941746809174
:1032E000950A0F900F900F900F9080FF0CC084E212
:1032F0009BE09F938F930E94174681E00E94412498
:103300000F900F9003C080E00E9441248091950AA5
:1033100081FF08C081E39BE09F938F930E94174633
:103320000F900F908091950A82FF08C080E49BE087
:103330009F938F930E9417460F900F908091950A4C
:1033400083FF08C08AE49BE09F938F930E941746F7
:103350000F900F908091950A84FF08C085E59BE04F
:103360009F938F930E9417460F900F9080E69BE0EB
:103370009F938F930E9417460F900F900895089582
:103380000F931F93CF93DF93C9EED0E011E0188322
:1033900064E381E80E946A1B02E0088364E380E83A
:1033A0000E946A1BEAEEF0E00083108284E08083D2
:1033B000108210932C01DF91CF911F910F910895EE
:1033C000089590912C01891719F0769880932C011B
:1033D00008950F931F93CF93DF9382E08093E900CA
:1033E0008091EB0080FF24C080913701882371F029
:1033F0000E94E739109237018091950A80FF03C03F
:1034000081E00E94412482E08093E90080912C01B8
:10341000811110C08091E80085FF0AC08091E8000A
:103420008B7F8093E8008091E8008F778093E8009D
:1034300080E064C05F9A8091E80085FF5EC00E94D2
:103440008410882309F459C00E94F11005E114E1A9
:10345000C0E0D0E020C02091F100F80121938F015D
:10346000219602C080E490E0C231F5E0DF0710F45D
:10347000019788F7C80FD91F21968091E8008B7FAC
:103480008093E8008091E8008F778093E8000E94A5
:10349000C21A811132C08091F200803419F38091F8
:1034A000F20090E007C08091F100F80181938F0154
:1034B0002196C901C231F5E0DF0730F49C012150AB
:1034C0003109892B81F7C901C80FD91F2196809135
:1034D000E8008B7F8093E8008091E8008F778093ED
:1034E000E800C33125E0D20740F4D0930C14C09318
:1034F0000B1485E194E10E94753C81E0DF91CF914E
:103500001F910F9108950F931F93CF93DF93EC01B9
:103510008B0181E08093E9000E94C21A81112BC0C7
:103520000C0F1D1F15C089918093F1008091E80058
:1035300085FD0EC08091E8008E7F8093E800809129
:10354000E8008F778093E8000E94C21A811113C0AF
:10355000C017D10741F78091E8008E7F8093E80083
:103560008091E8008F778093E8000E94FB100E9412
:10357000161B91E0811190E0892FDF91CF911F916F
:103580000F9108958AEF90E02BEF3091E10032FF28
:1035900003C02093E10001973091E80035FD14C08D
:1035A0003091D80037FF12C03091E00030FD0EC0DE
:1035B0003091EB0030FF0CC03091EB0035FD0AC0BC
:1035C000009719F78AE0089580E0089581E0089552
:1035D00082E0089583E008958AEF90E02BEF309128
:1035E000E10032FF03C02093E10001973091E80031
:1035F00030FD14C03091D80037FF12C03091E00088
:1036000030FD0EC03091EB0030FF0CC03091EB006C
:1036100035FD0AC0009719F78AE0089580E0089503
:1036200081E0089582E0089583E008958AEF90E0B4
:103630002BEF3091E10032FF03C02093E1000197AE
:103640003091E80030FD14C03091D80037FF12C02F
:103650003091E00030FD0EC03091EB0030FF0CC027
:103660003091EB0035FD0AC0009719F78AE0089504
:1036700080E0089581E0089582E0089583E0089550
:103680008AEF90E02BEF3091E10032FF03C02093EE
:10369000E10001973091E80032FD14C03091D8006C
:1036A00037FF12C03091E00030FD0EC03091EB00CA
:1036B00030FF0CC03091EB0035FD0AC0009719F7C0
:1036C0008AE0089580E0089581E0089582E00895F9
:1036D00083E00895EBEEF0E0908191609083809319
:1036E000EC00EDEEF0E080818270682B60838081D9
:1036F000826080838091EE00881F8827881F08954C
:103700009091F40080E090FD05C08F5F9695873022
:10371000D1F780E008958093E900842F06C0FB0173
:103720009191BF019093F10081509091E80095FF35
:1037300002C08111F4CF08958093E900842F06C060
:103740009091F100FB019193BF0181509091E800AD
:1037500095FF02C08111F4CF08958093E900EBEE4C
:10376000F0E080818062808308958091D8008F7B13
:103770008093D8008091D90081FF0CC01092E9009D
:103780008091EB0080FD06C01092E90060E380E0CC
:103790000C946A1B80E00895CF92DF92FF920F9302
:1037A0001F93CF93DF931F92CDB7DEB70E94D63E13
:1037B0006C018091F1008091F1008091F100909175
:1037C000F100192F00E0082BC114D10409F47CC0CA
:1037D000D6010D900020E9F7AC19BD09FA2EFF0CB7
:1037E0008F2D90E08017910740F43F2D3F7321E02B
:1037F00009F020E02093980A8C018091E800877FEF
:103800008093E8000E94EC1A811147C0F092F10009
:1038100083E08093F1000250110929F48091E800BF
:103820008E7F8093E80022E025C029830E94EC1A55
:103830002981882331F08091EB0080628093EB0036
:1038400020C0C6016C01203479F00196F601308168
:103850003093F1001092F1006C01025011092E5FBB
:103860000115110579F701C020E08091E8008E7FF5
:103870008093E8000115110521F08091E80082FF96
:10388000D4CF8091E80082FD15C08091980A8130E4
:1038900079F40E94EC1A882331F08091EB00806269
:1038A0008093EB0011C08091E8008E7F8093E80048
:1038B0000E94401B8091E8008B7F8093E8008091FC
:1038C000E8008F778093E8000F90DF91CF911F91F0
:1038D0000F91FF90DF90CF900895CF92DF92EF92FB
:1038E000FF920F931F93CF93DF931F92CDB7DEB755
:1038F000F82E0E94113F8C01009761F48F2D0F90DC
:10390000DF91CF911F910F91FF90EF90DF90CF90BB
:103910000C94CC1B8091F1008091F1008091F1001A
:103920009091F100392F20E06901C82AC8010E9456
:103930009D450196F82EFF0C2F2D30E02C153D05EE
:1039400040F49F2D9F7381E009F080E08093980AF6
:1039500069018091E800877F8093E8000E94EC1A5B
:1039600081115BC0C114D10409F46FC0F092F10061
:10397000760181E0E81AF10809F469C083E08093D8
:10398000F10091E0E91AF10892E0A1F58091E800D8
:103990008E7F8093E800E12CF12C2CC099830E944B
:1039A000EC1A9981882331F08091EB00806280933A
:1039B000EB0027C09034C1F0F8010F5F1F4FE49176
:1039C000E093F100E1E0EE16F10421F49F5FE12CB9
:1039D000F12C0BC01092F100F2E0EF1AF1089E5F9B
:1039E000E114F10439F701C090E08091E8008E7F86
:1039F0008093E800E114F10421F08091E80082FF57
:103A0000CDCF8091E80082FD15C08091980A813069
:103A100079F40E94EC1A882331F08091EB008062E7
:103A20008093EB0016C08091E8008E7F8093E800C1
:103A30000E94401B8091E8008B7F8093E80080917A
:103A4000E8008F778093E80004C090E09FCF91E07A
:103A50009DCF0F90DF91CF911F910F91FF90EF902D
:103A6000DF90CF9008950F931F93CF93DF931F9212
:103A7000CDB7DEB78091F1008093970A6091F10095
:103A80006630E1F060F4613009F4F7C008F45DC11C
:103A9000633009F428C1653009F0ACC1B6C06930A3
:103AA00009F4D2C020F4683009F0A4C1A1C06A3082
:103AB00009F476C16B3009F09DC175C1803809F0F9
:103AC00099C11092980A6091F1008091F1008230C2
:103AD00059F08330C1F08130E1F40E94803E809340
:103AE00014130E947D3E0AC0862F69830E94A73E60
:103AF000809314136981862F0E94823E909316133F
:103B0000809315139EC1662321F0862F0E946D1CA1
:103B100073C19091F1009091F1001091F10000912A
:103B2000F1000E94C53E811109C08091EB008062C6
:103B30008093EB008091E800877F59C18091E80075
:103B4000877F8093E80080911413811710F0002381
:103B500049F08F7321F481E08093980A2DC0109270
:103B6000980A2AC01093141327C00E94EC1A8823C5
:103B7000C9F08091EB0080628093EB0025C021505A
:103B8000B1F0E0911513F0911613CF0101969093C7
:103B9000161380931513E491E093F10031503093A4
:103BA000141301C021E4309114133111E8CF809136
:103BB000E8008E7F8093E80080911413882321F021
:103BC0008091E80082FFD1CF8091E80082FD07C19B
:103BD0008091980A813009F000C10E94EC1A882374
:103BE00009F4D8C08091EB0080628093EB0004C19F
:103BF000803809F0FFC08091E800877F8093E8005B
:103C0000809113138093F100C5C08111F3C090918E
:103C1000E3008091F1008F779078892B8093E30007
:103C20008091E800877F8093E8008091E8008E7F94
:103C30008093E8008091E80080FFFCCF8091E30052
:103C400080688093E300D8C08111D4C09091F100C6
:103C50008091E800877F8093E80090931313809110
:103C6000E8008E7F8093E8008091E80080FFFCCF21
:103C7000809113130E94213FBFC0833008F0BAC067
:103C8000882309F4B9C0813009F4B6C08091F100ED
:103C90009091F1008111B0C0E091F100EF77E093D5
:103CA000E9008091EB0080FFA7C0EE23A9F080918E
:103CB000EB0080618093EB0081E090E00E2E01C06C
:103CC000880F0A94EAF78093EA001092EA00809144
:103CD000EB0088608093EB001092E900F0E0E7567B
:103CE000F54F108226C0833008F084C0813009F47B
:103CF00083C0823009F080C08091F1009091F10082
:103D000081117AC0E091F100EF7709F475C0E0937A
:103D1000E9008091EB0080FF15C08091EB0080628C
:103D20008093EB001092E900F0E0E756F54F81E058
:103D300080838091E800877F8093E8008091E8008D
:103D40008E7F55C01092E90057C0982F905893303D
:103D500008F050C09091F1009091F100E091F100D5
:103D6000813811F0823841F08091E800877F80939C
:103D7000E8001092F1000CC08091E800877F8093EA
:103D8000E800EF77F0E0E756F54F80818093F1008F
:103D90001092F1008091E8008E7F8093E8001DC0B2
:103DA000813841F529C0813039F56091F100809169
:103DB000F1008091F1000E943B408823E9F080915E
:103DC000E800877F8093E8008091E8008E7F8093F1
:103DD000E8008091E80080FFFCCF0E94401B8091AA
:103DE000E8008B7F8093E8008091E8008F778093D4
:103DF000E80002C00E94BC3F1092E9008091E800F8
:103E000083FF05C08091EB0080628093EB0080917E
:103E1000E800877F8093E8008091E8008B7F8093A3
:103E2000E8008091E8008F778093E8008091E800B7
:103E30008E7F8093E8008091E8008F778093E80080
:103E400009C08091F1008091F1001091F100009182
:103E5000F10074CE0F90DF91CF911F910F910895D3
:103E6000789483B7817F846083BF83B7816083BF89
:103E7000889583B78E7F83BF08958EE089BD09B48E
:103E800000FEFDCF8091D8008F7D8093D800809177
:103E9000D80081608093D8008091E2008860809390
:103EA000E2000E94B51B8091E0008E7F8093E000CD
:103EB00008951F93CF93DF93EC01162F623871F5AD
:103EC0001092E9008091E80083FD0E94331D8091EB
:103ED000940A8823F9F083E08093E9008091E80058
:103EE00085FF18C081E08093F1001092F1001092DC
:103EF000F1001092F1001092F1001092F100109276
:103F0000F1001092F1008091E8008F778093E80033
:103F10001092940A8AE391E00E94392C8881998159
:103F2000009729F08C30914009F052C057C0809121
:103F3000D70081608093D7008091D7008F7B8093DA
:103F4000D7008091D70080688093D70078948091C3
:103F5000D8008F768093D8008091D80080698093B4
:103F6000D8008091D8008F7B8093D8008091D800B2
:103F700081608093D80078948AE391E00E94392C84
:103F80008091D90080FF09C080911713811105C06D
:103F900081E0809317130E943D1F8091A00A9091A9
:103FA000A10A90FF10C08091A00A9091A10A9E7F63
:103FB0009093A10A8093A00A81E08093EA00109276
:103FC000EA00109213138CE091E09983888304C077
:103FD0001982188283E005C081E003C01F32E1F737
:103FE000CFCFDF91CF911F9108951F920F920FB6FF
:103FF0000F9211240BB60F922F933F934F935F9321
:104000006F937F938F939F93AF93BF93EF93FF93A0
:1040100040E050E06FE28AE391E00E94EA2B809159
:10402000DA0080FF31C08091D80080FF2DC08EEF74
:104030008093DA008091D90080FF19C081E08093DD
:1040400017138091A00A9091A10A82609093A10A0F
:104050008093A00A8091E20088608093E2000E9431
:104060003D1F8091E0008E7F8093E0000DC0109294
:104070001713109213138091A00A9091A10A8460E3
:104080009093A10A8093A00A8091E10082FF07C06B
:104090008091E20082FF03C08BEF8093E10080916A
:1040A000E10080FF1FC08091E20080FF1BC08EEF07
:1040B0008093E1008091E20080618093E2008FEEC6
:1040C0008093E1008091D80080628093D800809135
:1040D000A00A9091A10A80629093A10A8093A00AFD
:1040E0000E94301F8091E10084FF1AC08091E2009D
:1040F00084FF16C08091D8008F7D8093D8008FEE0A
:104100008093E1008091E2008F7E8093E2008091B5
:10411000A00A9091A10A80649093A10A8093A00ABA
:104120008091E10085FF1AC08091E20085FF16C0F2
:104130008091E2008F7E8093E2008FED8093E1001A
:104140008091E2008F7D8093E2008091A00A90919F
:10415000A10A80689093A10A8093A00A8091E1004F
:1041600083FF12C08091E20083FF0EC087EF80932F
:10417000E1000E94B51B8091A00A9091A10A916074
:104180009093A10A8093A00AFF91EF91BF91AF9104
:104190009F918F917F916F915F914F913F912F915F
:1041A0000F900BBE0F900FBE0F901F901895F894B4
:1041B0001092B60016BC89EF87BD82E084BD94E002
:1041C00095BD95B395BB80936E007894089520912A
:1041D000A30A3091A40A8091A30A9091A40A2817F7
:1041E0003907A9F7C90108950F931F9300911C1374
:1041F00010911D1320911E1330911F1380911C13D9
:1042000090911D13A0911E13B0911F130817190749
:104210002A073B0759F7B801C9011F910F9108956B
:1042200060931C1370931D1380931E1390931F13A0
:104230000895CF93DF93EC010E94E720C80FD91FA8
:104240000E94E7208C1B9D0B97FDFACFDF91CF9149
:1042500008958430910548F00397880F991F880FBF
:10426000991F969587950197F1F7089582309105EA
:1042700070F04DE2489F9001499F300D1124C90113
:1042800044E0969587954A95E1F70C942921089585
:10429000CF93DF93EC0184EE93E005C00E942921C7
:1042A000219787EE93E02097C9F7DF91CF9108958A
:1042B0000F931F93EFB7F8942091A30A3091A40AAB
:1042C000280F391F3093A40A2093A30A2091A20A31
:1042D000820F911D409118135091191360911A1378
:1042E00070911B1316C08D57910900911C131091EA
:1042F0001D1320911E1330911F130F5F1F4F2F4F5F
:104300003F4F00931C1310931D1320931E133093E3
:104310001F13A42FF52F362F272F4F5F5F4F6F4F9F
:104320007F4F8D379105F8F6A0931813F09319136A
:1043300030931A1320931B138093A20AEFBF1F918F
:104340000F9108951F920F920FB60F9211240BB682
:104350000F922F933F934F935F936F937F938F931E
:104360009F93AF93BF93EF93FF938091A30A909194
:10437000A40A01969093A40A8093A30A8091A20AAA
:104380008F5F8093A20A8D37F8F01092A20A809175
:104390001C1390911D13A0911E13B0911F13019631
:1043A000A11DB11D80931C1390931D13A0931E1388
:1043B000B0931F138091A50A8F5F8093A50A811186
:1043C00003C081E0809326130E94FA2D892B11F0FF
:1043D0000E94072DFF91EF91BF91AF919F918F9117
:1043E0007F916F915F914F913F912F910F900BBEF5
:1043F0000F900FBE0F901F9018951F920F920FB63F
:104400000F9211240BB60F922F933F934F935F930C
:104410006F937F938F939F93AF93BF93EF93FF938C
:104420008091CE00E0912013F0912113309709F094
:104430000995FF91EF91BF91AF919F918F917F91DE
:104440006F915F914F913F912F910F900BBE0F9005
:104450000FBE0F901F90189581110DC01092CD00C6
:104460006093CC0088E98093C9004093CA00109201
:104470002113109220130895811106C08091C80065
:1044800085FFFCCF6093CE000895CF93C82F8A306C
:1044900031F46DE08091A60A0E943C2202C08D306A
:1044A00029F06C2F8091A60A0E943C2280E090E0C7
:1044B000CF910895811104C070932113609320134C
:1044C00008951F93CF93DF93182FEB010CC08A3010
:1044D00021F46DE0812F0E943C2269916D3019F02A
:1044E000812F0E943C2288818111F1CFDF91CF91F1
:1044F0001F9108959091C80095FFFCCF8093CE0046
:1045000008958093A60A84E491E090934D1A8093D5
:104510004C1A089584B7877F84BF88E10FB6F8945A
:1045200080936000109260000FBE08952FE088E134
:1045300090E00FB6F894A895809360000FBE20938A
:1045400060000895A895089588E10FB6F8948093C7
:104550006000109260000FBE0895F89428E088E192
:1045600090E00FB6F894A895809360000FBE20935A
:104570006000FFCF80E090EFA1E0B0E0ABBFFC01B6
:104580008791969121E0019609F420E0822F089509
:104590008091E00081608093E000F8948AEC9CEACE
:1045A000A2E4BCED8093501A9093511AA093521A32
:1045B000B093531A80E0EFEFFCE73197F1F700C0BA
:1045C00000008F5F8038B9F78AEC9CEAA2E4BCED6A
:1045D0008093501A9093511AA093521AB093531A81
:1045E0000C94AD228091281390E008951C9909C085
:1045F000282F803108F02FE040E06FE085E00C9438
:104600000E280895EF92FF920F931F93CF93DF939D
:10461000F82ED92FC62FE72E0091BB131091BC1393
:104620002091BD133091BE130F5F1F4F2F4F3F4F8F
:104630000093BB131093BC132093BD133093BE1390
:10464000162F1E5F17FD1FC027EA3AE0462F572F8F
:10465000682F792FC9010E94C14540E050E06C2FBE
:104660007E2D8F2D9D2F0E94CC2F612F70E0FB019E
:10467000EB55F54F9183808387EA9AE00E94FE3CD8
:1046800020E030E002C02FEF3FEFC901DF91CF9172
:104690001F910F91FF90EF9008951C990BC040E07F
:1046A0006FE181E00E94F72721E030E0813021F0C6
:1046B000813111F020E030E0C90108951C9912C049
:1046C00040E06FE181E00E94F727982F815182300E
:1046D00038F09F3129F0913019F081E0923019F4CF
:1046E00080E0089581E00895CF93DF93C0E1D7E2A1
:1046F0000E945E23811102C02197D1F7DF91CF91F3
:10470000089540E06FE181E00C94F727CF93DF93A9
:10471000C82F0E9474230E948123D82FC81709F440
:1047200039C0C83069F483B12C98EDE0F0E03197DE
:10473000F1F723E040E06FE182E00E940E281FC005
:10474000C93121F4863181F429E005C0C63161F414
:10475000893151F426E040E06FE182E00E940E28AA
:10476000E3E0F0E03197F1F72C2F40E06FE182E0D9
:104770000E940E28D83019F4E9E6F1E002C0E3E027
:10478000F0E03197F1F70E9481238C1719F023E4B0
:1047900030E002C020E430E0C901DF91CF910895FC
:1047A00081E08093B2131C9B05C02C9881EC9DE0A6
:1047B0000197F1F71C9903C086E10E9486230C94AF
:1047C00074238091B213811102C00E94D02381E032
:1047D00090E008958091B213882359F00E945E23DF
:1047E0000E9474231C9903C086E00E9486231092C5
:1047F000B21380E090E00895EF92FF920F931F9321
:10480000CF93DF931F92CDB7DEB78091B213882389
:1048100059F01C9B03C000E010E02AC00E945E23F8
:104820008823C9F3E12C04C00E94E123EE24E39421
:104830008FB78983F8940E94742321E047E060E8F1
:1048400088E00E940E2889E191E00197F1F7F12CB0
:1048500004C081E00E94C127F82EF7FEFACF8981BB
:104860008FBFE1100E94EA23F6FA002700F910E05A
:10487000C8010F90DF91CF911F910F91FF90EF90A2
:1048800008958093280B08950E94812382508131DE
:1048900030F4E82FF0E0E456FE4F8081089581E087
:1048A0000895282F45E060E28EE20C940E282F98A0
:1048B00027986CE08EE00E94DC2722E044E060EF65
:1048C0008CE20E940E2825E041E06EE08CE20E941E
:1048D0000E2860E88FE20E94DC2786E00E94C12754
:1048E000682F8DE20E94DC2723E040E06FE089E042
:1048F0000E940E2821E047E060E885E00C940E2835
:10490000CF93DF93CDEFD3E0CE010197F1F70E9473
:10491000A3271092301310922F1310922E132D985C
:104920002C9881EC9DE00197F1F72D9A23E040E06F
:104930006FE182E00E940E282197F1F78DE10E943D
:10494000C1278EE10E94C1270E94572460E070E0D9
:1049500082E591E00E94182C0E94D02381E090E033
:10496000DF91CF9108958091290B0895CF93DF9324
:104970001F92CDB7DEB789830E947423898180930B
:10498000290B282F40E06FE188E00F90DF91CF9155
:104990000C940E280E94B6241C9903C086E00C9447
:1049A00086230895EF92FF921F93CF93DF9300D059
:1049B000CDB7DEB7162F7A01682F82E27A8399830A
:1049C0000E94DC279981692F83E20E94DC27612FF6
:1049D00080E20E94DC277A81672F81E20E94DC2737
:1049E000E114F10479F1F70160818BE20E94DC2788
:1049F000F70161818AE20E94DC27F701628189E286
:104A00000E94DC27F701638188E20E94DC27F7011E
:104A1000648187E20E94DC27F701658186E20E94BB
:104A2000DC27F701668185E20E94DC27F7016781B8
:104A300084E20F900F90DF91CF911F91FF90EF9044
:104A40000C94DC270F900F90DF91CF911F91FF9076
:104A5000EF9008958091B2138823D9F082E591E018
:104A60000E94392C81E0809328138091FF1390914C
:104A70000014A0910114B09102140196A11DB11D62
:104A80008093FF1390930014A0930114B093021429
:104A900009C0E0912F1382E8E89FF0011124E05D46
:104AA000FC4E108281E090E00895DF92EF92FF9239
:104AB0000F931F93CF93DF93D82EE92E20912F13BE
:104AC00012E8129F90011124D901A05DBC4EFC9008
:104AD000FF2009F49FC08091B213882309F49AC083
:104AE000F7FE15C01C928091EB139091EC13A091EE
:104AF000ED13B091EE130196A11DB11D8093EB1340
:104B00009093EC13A093ED13B093EE1383C082E067
:104B10008F15A8F01C928091E7139091E813A09153
:104B2000E913B091EA130196A11DB11D8093E7131B
:104B30009093E813A093E913B093EA136BC0CF2DC1
:104B4000D0E022976C177D07A8F41C928091E313A4
:104B50009091E413A091E513B091E6130196A11D85
:104B6000B11D8093E3139093E413A093E513B093E6
:104B7000E61350C02F5C3C4E4F2D50E0B9018D2DF7
:104B80000E94C145E0912F131E9FF0011124E05DAA
:104B9000FC4EDF01A058BF4F8C91809322131082EE
:104BA00010922F138091301381110E942A2587E0E3
:104BB0000E94C1278093231390912713992311F00A
:104BC000891710F480932713682F70E084E00E9407
:104BD0003F0A6091221370E083E00E943F0A009137
:104BE000BF131091C0132091C1133091C2130F5FF6
:104BF0001F4F2F4F3F4F0093BF131093C0132093AD
:104C0000C1133093C2136F2D70E08D2D9E2D0E9425
:104C1000443D02C0C0E0D0E0CE01DF91CF911F91B2
:104C20000F91FF90EF90DF9008950F931F93CF9314
:104C3000DF931F92CDB7DEB78C01FC01808191819B
:104C4000009721F08431954009F527C084E195E073
:104C5000F801918380831FC0109228130E94C60917
:104C60008FB78983F8940E94210960E870E00E9460
:104C7000552529812FBF1816190644F70E941C09D3
:104C8000E091CB01F091CC010995E0CFF8011182C0
:104C9000108283E005C081E003C06238E1F7DCCF19
:104CA0000F90DF91CF911F910F9108950C94F622F0
:104CB0001C9905C040E06FE085E00C94F72780E187
:104CC00008951F93CF93DF93182F1C9B04C02C983B
:104CD000E1ECFDE017C0809126138823A9F021E0C4
:104CE00047E060E88AE10E940E2821E047E060E8A2
:104CF0008BE10E940E281092261381E080932913E5
:104D0000E1EAF0E03197F1F70E9474231C9903C0A7
:104D100089E10E94862386E00E944A0A892B51F08D
:104D20000E945826C82F86E00E944A0A81500E949D
:104D3000F62202C0C0E0D0E02C9A2C98612F6E5F62
:104D400087EA9AE00E947A280E94742345E060EE88
:104D500082E00E94F727182F86E00E944A0A892BDA
:104D600019F08C2F0E94F6220E94D023113011F0EE
:104D700011112DC08091FB139091FC13A091FD1394
:104D8000B091FE130196A11DB11D8093FB1390936A
:104D9000FC13A093FD13B093FE138CE00E944A0A0B
:104DA000892B09F445C08091D7139091D813A09115
:104DB000D913B091DA130196A11DB11D8093D713B9
:104DC0009093D813A093D913B093DA1331C0133052
:104DD000A9F48091F3139091F413A091F513B0917D
:104DE000F6130196A11DB11D8093F3139093F41354
:104DF000A093F513B093F61312E01DC01530A9F47B
:104E00008091DF139091E013A091E113B091E21330
:104E10000196A11DB11D8093DF139093E013A09321
:104E2000E113B093E21313E006C0173021F402C07F
:104E300010E001C011E0812F90E0DF91CF911F9130
:104E400008950F931F93CF93DF938C01EB010E9482
:104E50008A3D882371F0BE01C8010E9402239C0193
:104E6000009749F4CE01DF91CF911F910F910C94DF
:104E7000612620E030E0C901DF91CF911F910F91B1
:104E80000895CF93DF938091B213811104C00E94E3
:104E9000E123D1E001C0D0E00E948123863111F0EE
:104EA000813129F487E00E94C127C82F08C040E063
:104EB0006FE186E00E94F727C82FCC0FC80FD111F1
:104EC0000E94EA238C2FDF91CF91089561E08EE05C
:104ED0000E94DC2763E082E00E94DC2760E183E03F
:104EE0000E94DC2721E045E060E688E00E940E2871
:104EF00020E047E060E885E00E940E2881E00E9403
:104F0000C1276FE787EA9AE00E947A286FE086E37C
:104F10000E94DC2760E08DE30E94DC27279A2F9A0D
:104F200069E082E00E94DC2789E691E00197F1F7D1
:104F30008DE291E0FC013197F1F70197F1F762E022
:104F400082E00C94DC2710922B0B10922A0B249AEF
:104F5000259A85B1836085B984B1876084B9239827
:104F600080E58CBD81E08DBD83E480938100B59A9E
:104F7000EFE6F0E0808181608083808180628083C1
:104F80000895CF93DF931F92CDB7DEB780689FB7A8
:104F90009983F89428988EBD0DB407FEFDCF8EB589
:104FA0001EBC0DB407FEFDCF8EB5289A99819FBF18
:104FB0000F90DF91CF910895CF93DF931F92CDB7DC
:104FC000DEB7806C9FB79983F89428988EBD0DB496
:104FD00007FEFDCF8EB56EBD0DB407FEFDCF8EB5BD
:104FE000289A89818FBF0F90DF91CF910895CF9339
:104FF000DF9300D0CDB7DEB74A8369830E94C12713
:105000006981862390E04A8102C0959587954A95EB
:10501000E2F70F900F90DF91CF9108951F93CF93F8
:10502000DF9300D000D0CDB7DEB7182F2C834B8391
:105030006A830E94C127898389816A81962F90950E
:10504000982399832C814B8101C0220F4A95EAF75E
:1050500026238981282B622F812F0E94DC270F9025
:105060000F900F900F90DF91CF911F910895CF93E4
:10507000DF931F92CDB7DEB72FB72983F894289816
:1050800020E22EBD0DB407FEFDCF2EB51EBC0DB423
:1050900007FEFDCF2EB5322F3350FC013D37D8F43B
:1050A0003196DC012C931EBC0DB407FEFDCF2E0FF4
:1050B0003EB531931EBC0DB407FEFDCF2E13F8CFC5
:1050C0002EB5FC01E058FF4F2083FC01EF57FF4F46
:1050D00021E0208308C01082E058FF4F1082FC01BD
:1050E000EF57FF4F1082289A89818FBF0F90DF9171
:1050F000CF910895CF93DF931F92CDB7DEB72FB72F
:105100002983F894289820E62EBD0DB407FEFDCF24
:105110002EB56EBD0DB407FEFDCF2EB56250FC015D
:105120002191CF012EBD0DB407FEFDCF2EB56150EC
:10513000B1F7289A89818FBF0F90DF91CF910895A1
:105140001F920F920FB60F9211240BB60F922F934E
:105150003F934F935F936F937F938F939F93AF93FF
:10516000BF93EF93FF93CF93DF9300D0CDB7DEB71C
:105170008FB78983F89428988FE88EBD0DB407FE09
:10518000FDCF1EBC0DB407FEFDCF8EB5289A9981C8
:105190009FBF82FD31C083FF20C081E00E94C127F4
:1051A0008F718A838A81813149F08A81863031F01A
:1051B0008A81813019F08A818631F1F480912E1331
:1051C00022E8829FC0011124805D9C4E0E943728F6
:1051D00010922E130E942A250FC086FD0DC0982F15
:1051E000937051F487FF08C08EE00E94C127682F9A
:1051F0006F778EE00E94DC270F900F90DF91CF91A8
:10520000FF91EF91BF91AF919F918F917F916F919E
:105210005F914F913F912F910F900BBE0F900FBE5A
:105220000F901F9018951F920F920FB60F92112496
:105230008F939F9380912A0B90912B0B01969093C3
:105240002B0B80932A0B9F918F910F900FBE0F9085
:105250001F901895DB01FC0188E09D91919381508E
:10526000E1F70895FC01DB0188E021919D9129136C
:1052700005C08150D1F721E030E002C020E030E0ED
:10528000C9010895BC0183EB93E10C942A29E091B4
:10529000C701F091C8010994E091D701F091D801BC
:1052A0000994E091CD01F091CE010994E091CF01F4
:1052B000F091D001099480E090E008950895E09184
:1052C0009801F0919901099480E090E008950F937E
:1052D0001F93CF93DF93CDB7DEB7E0970FB6F89467
:1052E000DEBF0FBECDBF0E9472098C010E94210952
:1052F000AE014F5F5F4F602F0E94E841882309F4A1
:1053000049C088A99801281B3109C9010E94FD08DC
:10531000892B09F43FC02E8121110CC0BE016A5EA9
:105320007F4F88E10E94530AE091BB01F091BC01DC
:10533000099530C08A859B858D3C3BEA930711F027
:10534000019641F5223069F088E090E00CC0E1E080
:10535000F0E0EC0FFD1FE80FF91F23852F3F19F038
:105360000AC082E090E001979C012F5F3F4F121628
:1053700013066CF3D3CFBE01645F7F4F89E10E94B7
:10538000530A89E10E945E0A63EB73E10E943229AD
:10539000892B21F6E0960FB6F894DEBF0FBECDBF85
:1053A000DF91CF911F910F910895AF92BF92CF924D
:1053B000DF92EF92FF920F931F93CF93DF93CDB7BE
:1053C000DEB7E0970FB6F894DEBF0FBECDBF8C01FD
:1053D0007B01FE01319680E3DF011D928A95E9F79A
:1053E00081E089838CE00E944A0A8C831D821F829F
:1053F00080912C0B89878F5F80932C0B83E0D82EB4
:10540000D8868DEC9BEA9B878A8789E10E945E0A99
:105410006DEA71E00E943229892B31F082E08E839F
:105420008FEF8C878D8709C089E10E945E0ABC01DD
:10543000CE010C960E942A29DE828DEC9BEA9D8B80
:105440008C8B63EB73E1CE0146960E942A290E9461
:1054500021099FA78EA70E94720988ABCE010196F1
:105460000E94DB40D82E90E00E948809892B41F1F0
:105470000E942909BC014D2DCE0101960E94F940E0
:10548000C0908E01D0908F010E947C095C010E9427
:105490002909B501F60109950115110589F0009753
:1054A00019F0019769F405C041E050E060E070E058
:1054B00004C041E050E064E070E0C701F8010995E4
:1054C000E0960FB6F894DEBF0FBECDBFDF91CF914F
:1054D0001F910F91FF90EF90DF90CF90BF90AF9012
:1054E00008950E94EA2F80932C0BE0919801F0918F
:1054F000990109940F931F93CF93DF9300D0CDB7F9
:10550000DEB78C014115510591F0FA01828193813A
:1055100069837A830E940C0869817A81C8010F909F
:105520000F90DF91CF911F910F910C94D5290F907F
:105530000F90DF91CF911F910F910895892B29F042
:10554000E0919801F091990104C0E0919A01F091E5
:105550009B0109941F93CF93DF93EC01162F88854D
:1055600080FF1EC0EC81FD813097D1F0D0932E0BCF
:10557000C0932D0B82E08887CE0106960995992766
:1055800087FD90950297029710F0133839F4BE0109
:10559000CE01DF91CF911F910C94D42A81E08887AE
:1055A000DF91CF911F910895CF92DF92EF92FF92FA
:1055B0000F931F93CF93DF93EC016B01E0902D0BC2
:1055C000F0902E0B00912F0B1091300BF80103C0BF
:1055D0000190F081E02DEC17FD0719F03097C1F72D
:1055E00046C0209709F443C08885882309F11886AE
:1055F0000BC0C017D10729F0AE0167E8C8010E94AF
:10560000AA2AF801008111810115110591F7EC8199
:10561000FD81309769F0CC15DD0551F0D0932E0B4C
:10562000C0932D0B40E050E063E8CE01069609954B
:10563000E0912F0BF091300BCE17DF0791F48881AA
:1056400099819093300B80932F0B0DC080819181B5
:105650008C179D0729F4888199819183808303C0E9
:10566000FC01309799F7F0922E0BE0922D0BDF9111
:10567000CF911F910F91FF90EF90DF90CF90089501
:105680001F93CF93DF931092310BC0912F0BD091CA
:10569000300B11E00EC08985882341F018871986E8
:1056A00040E050E062E8CE010E94AA2A0990D88129
:1056B000C02D209781F7DF91CF911F9108958091A0
:1056C000320B982F9F5F9093320B089560912D0BB2
:1056D00070912E0B0C94D42A8BE88093320B10928D
:1056E000330B1092340B1092300B10922F0B109240
:1056F0002E0B10922D0B08958091310B81110E9479
:10570000402B7091340B772309F452C0E091330B96
:105710002E2F30E085E0E89FF0011124EB5CF44F80
:1057200060816093D50B418152815093D70B409398
:10573000D60B838194819093D90B8093D80B2F5FE4
:105740003F4F2F7133272093330B71507093340BDD
:10575000009739F580912F0B9091300B17C08091F5
:10576000310B81110E94402B4091D60B5091D70BE9
:105770006091D50B8091DA0B9091DB0B0E94AA2AE5
:10578000E091DA0BF091DB0B808191819093DB0B40
:105790008093DA0B8091DA0B9091DB0B892BF9F671
:1057A00007C0613819F421E0FC0120870E94AA2A71
:1057B0002091310B8091340B30E0280F311DC9014D
:1057C00008952091310B8091340B30E0280F311D6A
:1057D000C90108952091340B2032B9F0E091330BC8
:1057E000E20FEF71E093DC0B35E0E39FF001112451
:1057F000EB5CF44F608352834183948383832F5FF8
:105800002093340B20E030E002C021E030E0C901F9
:105810000895CF93DF93C0912D0BD0912E0B0E9452
:10582000AA2AD0932E0BC0932D0BDF91CF91089510
:10583000AB0130912F0B2091300BE32FF22F03C0DF
:105840000190F081E02DE817F90791F03097C1F74A
:10585000009771F0FC01308321839093300B80938B
:105860002F0B21E020871782168261E80C94092C07
:105870000895009749F0FC0120852150223020F442
:1058800021E021872093310B089521E030E0FC01D5
:105890008085811102C020E030E0C9010895CF93D6
:1058A000DF93EC014A815B8160E070E08C819D8137
:1058B0000E94DC454A815B8128813981429FC00179
:1058C000439F900D529F900D1124AC0160E070E059
:1058D0008E819F81DF91CF910C94DC45FC01828108
:1058E000938120E030E019C0A481B581A20FB31FDD
:1058F0004C91411110C081E08C9340815181249FD3
:10590000C001259F900D349F900D11242681378171
:10591000280F391F07C02F5F3F4F2817390721F77E
:1059200020E030E0C9010895FC01268137814281E1
:10593000538180E090E018C02617370781F4A481D6
:10594000B581A80FB91F2C91121614F421502C9375
:105950000480F581E02DE80FF91F80810895A08172
:10596000B1812A0F3B1F01968417950729F78FEF06
:105970000895FC01268137816217730790F0A0819A
:10598000B18142815381A49FC001A59F900DB49F16
:10599000900D1124820F931F21E030E068177907E2
:1059A00010F020E030E0C90108958091DD0B909166
:1059B000DE0B892B29F41092E00B1092DF0B089577
:1059C0000E94E720E091DD0BF091DE0B2281338114
:1059D00040815181240F351F281B390B0CC0428197
:1059E000538160817181460F571F481B590B421725
:1059F000530708F49A010480F581E02D309779F778
:105A0000280F391F3093E00B2093DF0B08958CE5AE
:105A100091E00C94392CEF92FF920F931F93CF9348
:105A2000DF938C01FC0180819181009729F08A35F8
:105A3000910509F064C068C01092DE0B1092DD0B76
:105A40008AE590E0F8019183808381E064C004805E
:105A5000F581E02D309709F4EFCF86819781841787
:105A60009507A9F3E093DD0BF093DE0B0FC01696BC
:105A70008D919C9117978417950739F414968D9101
:105A80009C9115979583848301C0FD01A481B58104
:105A9000109769F7D5CF623899F6C091DD0BD09198
:105AA000DE0BE12CF12C28C0CE010E94CF42892BC5
:105AB000F1F0AE0168E88E819F810E94EA2B892B6C
:105AC000A1F41F821E828C819D81E114F10421F0DA
:105AD000F7019583848304C09093DE0B8093DD0BE4
